{
  "_format": "hh-sol-artifact-1",
  "contractName": "Ecommerce",
  "sourceName": "contracts/AugmentedBasedPlatform.sol",
  "abi": [
    {
      "anonymous": false,
      "inputs": [
        {
          "indexed": false,
          "internalType": "address",
          "name": "sender",
          "type": "address"
        },
        {
          "indexed": false,
          "internalType": "address",
          "name": "receiver",
          "type": "address"
        },
        {
          "indexed": false,
          "internalType": "uint256",
          "name": "amount",
          "type": "uint256"
        },
        {
          "indexed": false,
          "internalType": "string",
          "name": "vendorname",
          "type": "string"
        }
      ],
      "name": "adminTransfer",
      "type": "event"
    },
    {
      "inputs": [
        {
          "internalType": "uint256",
          "name": "_transactionIndex",
          "type": "uint256"
        },
        {
          "internalType": "address",
          "name": "_sender",
          "type": "address"
        }
      ],
      "name": "addSender",
      "outputs": [],
      "stateMutability": "nonpayable",
      "type": "function"
    },
    {
      "inputs": [
        {
          "internalType": "string",
          "name": "vendorname",
          "type": "string"
        },
        {
          "internalType": "address payable",
          "name": "receiver",
          "type": "address"
        },
        {
          "internalType": "uint256",
          "name": "amount",
          "type": "uint256"
        },
        {
          "internalType": "address",
          "name": "sender",
          "type": "address"
        }
      ],
      "name": "addToBlockchain",
      "outputs": [],
      "stateMutability": "nonpayable",
      "type": "function"
    },
    {
      "inputs": [
        {
          "internalType": "address",
          "name": "",
          "type": "address"
        }
      ],
      "name": "adminBalance",
      "outputs": [
        {
          "internalType": "uint256",
          "name": "",
          "type": "uint256"
        }
      ],
      "stateMutability": "view",
      "type": "function"
    },
    {
      "inputs": [
        {
          "internalType": "uint256",
          "name": "",
          "type": "uint256"
        }
      ],
      "name": "admintransactions",
      "outputs": [
        {
          "internalType": "string",
          "name": "vendorname",
          "type": "string"
        },
        {
          "internalType": "address",
          "name": "sender",
          "type": "address"
        },
        {
          "internalType": "uint256",
          "name": "amount",
          "type": "uint256"
        },
        {
          "internalType": "address",
          "name": "receiver",
          "type": "address"
        }
      ],
      "stateMutability": "view",
      "type": "function"
    },
    {
      "inputs": [],
      "name": "getAllTransactions",
      "outputs": [
        {
          "components": [
            {
              "internalType": "string",
              "name": "vendorname",
              "type": "string"
            },
            {
              "internalType": "address",
              "name": "sender",
              "type": "address"
            },
            {
              "internalType": "uint256",
              "name": "amount",
              "type": "uint256"
            },
            {
              "internalType": "address",
              "name": "receiver",
              "type": "address"
            }
          ],
          "internalType": "struct Ecommerce.Transaction2[]",
          "name": "",
          "type": "tuple[]"
        }
      ],
      "stateMutability": "view",
      "type": "function"
    },
    {
      "inputs": [
        {
          "internalType": "address",
          "name": "vendor",
          "type": "address"
        }
      ],
      "name": "getBalance",
      "outputs": [
        {
          "internalType": "uint256",
          "name": "",
          "type": "uint256"
        }
      ],
      "stateMutability": "view",
      "type": "function"
    },
    {
      "inputs": [],
      "name": "getTransactionCount",
      "outputs": [
        {
          "internalType": "uint256",
          "name": "",
          "type": "uint256"
        }
      ],
      "stateMutability": "view",
      "type": "function"
    },
    {
      "inputs": [
        {
          "internalType": "string",
          "name": "_productname",
          "type": "string"
        },
        {
          "internalType": "uint256",
          "name": "_amount",
          "type": "uint256"
        },
        {
          "internalType": "string",
          "name": "_sendername",
          "type": "string"
        },
        {
          "internalType": "address",
          "name": "_receiver",
          "type": "address"
        }
      ],
      "name": "payOrder",
      "outputs": [
        {
          "internalType": "uint256",
          "name": "",
          "type": "uint256"
        }
      ],
      "stateMutability": "payable",
      "type": "function"
    },
    {
      "inputs": [],
      "name": "transactionCount",
      "outputs": [
        {
          "internalType": "uint256",
          "name": "",
          "type": "uint256"
        }
      ],
      "stateMutability": "view",
      "type": "function"
    },
    {
      "inputs": [],
      "name": "transactionCount2",
      "outputs": [
        {
          "internalType": "uint256",
          "name": "",
          "type": "uint256"
        }
      ],
      "stateMutability": "view",
      "type": "function"
    },
    {
      "inputs": [
        {
          "internalType": "uint256",
          "name": "",
          "type": "uint256"
        }
      ],
      "name": "transactions",
      "outputs": [
        {
          "internalType": "string",
          "name": "productname",
          "type": "string"
        },
        {
          "internalType": "uint256",
          "name": "amount",
          "type": "uint256"
        },
        {
          "internalType": "uint256",
          "name": "amountCollected",
          "type": "uint256"
        },
        {
          "internalType": "string",
          "name": "sendername",
          "type": "string"
        },
        {
          "internalType": "address",
          "name": "receiver",
          "type": "address"
        }
      ],
      "stateMutability": "view",
      "type": "function"
    },
    {
      "inputs": [
        {
          "internalType": "address",
          "name": "",
          "type": "address"
        }
      ],
      "name": "vendorBalance",
      "outputs": [
        {
          "internalType": "uint256",
          "name": "",
          "type": "uint256"
        }
      ],
      "stateMutability": "view",
      "type": "function"
    },
    {
      "inputs": [],
      "name": "withdrawFunds",
      "outputs": [],
      "stateMutability": "nonpayable",
      "type": "function"
    }
  ],
  "bytecode": "0x60806040526000600255600060055534801561001a57600080fd5b506118818061002a6000396000f3fe6080604052600436106100c25760003560e01c8063732d4c251161007f578063b77bf60011610059578063b77bf60014610276578063c4ae93b0146102a1578063d4abaaff146102de578063f8b2cb4f14610307576100c2565b8063732d4c25146101ca5780639ace38c21461020a578063aaeadaed1461024b576100c2565b806320466b95146100c757806324600fc3146100f057806327506f53146101075780632e7700f01461013257806330772c101461015d57806342220aa01461019a575b600080fd5b3480156100d357600080fd5b506100ee60048036038101906100e991906110c9565b610344565b005b3480156100fc57600080fd5b50610105610526565b005b34801561011357600080fd5b5061011c61063a565b6040516101299190611317565b60405180910390f35b34801561013e57600080fd5b506101476107e1565b6040516101549190611348565b60405180910390f35b34801561016957600080fd5b50610184600480360381019061017f9190611363565b6107eb565b6040516101919190611348565b60405180910390f35b6101b460048036038101906101af9190611390565b610803565b6040516101c19190611348565b60405180910390f35b3480156101d657600080fd5b506101f160048036038101906101ec919061142f565b6109fc565b60405161020194939291906114b5565b60405180910390f35b34801561021657600080fd5b50610231600480360381019061022c919061142f565b610b04565b604051610242959493929190611501565b60405180910390f35b34801561025757600080fd5b50610260610c7a565b60405161026d9190611348565b60405180910390f35b34801561028257600080fd5b5061028b610c80565b6040516102989190611348565b60405180910390f35b3480156102ad57600080fd5b506102c860048036038101906102c39190611363565b610c86565b6040516102d59190611348565b60405180910390f35b3480156102ea57600080fd5b5061030560048036038101906103009190611562565b610c9e565b005b34801561031357600080fd5b5061032e60048036038101906103299190611363565b610d28565b60405161033b9190611348565b60405180910390f35b60016005600082825461035791906115d1565b9250508190555081600360008573ffffffffffffffffffffffffffffffffffffffff1673ffffffffffffffffffffffffffffffffffffffff16815260200190815260200160002060008282546103ad91906115d1565b92505081905550600460405180608001604052808681526020018373ffffffffffffffffffffffffffffffffffffffff1681526020018481526020018573ffffffffffffffffffffffffffffffffffffffff1681525090806001815401808255809150506001900390600052602060002090600402016000909190919091506000820151816000019080519060200190610448929190610d70565b5060208201518160010160006101000a81548173ffffffffffffffffffffffffffffffffffffffff021916908373ffffffffffffffffffffffffffffffffffffffff1602179055506040820151816002015560608201518160030160006101000a81548173ffffffffffffffffffffffffffffffffffffffff021916908373ffffffffffffffffffffffffffffffffffffffff16021790555050507ff8cd5ff11318b94809e4a8f7e6f050dce480258e09b63131fabb0f7c3ed70759818484876040516105189493929190611686565b60405180910390a150505050565b60008060003373ffffffffffffffffffffffffffffffffffffffff1673ffffffffffffffffffffffffffffffffffffffff168152602001908152602001600020549050600081116105ac576040517f08c379a00000000000000000000000000000000000000000000000000000000081526004016105a39061171e565b60405180910390fd5b60008060003373ffffffffffffffffffffffffffffffffffffffff1673ffffffffffffffffffffffffffffffffffffffff168152602001908152602001600020819055503373ffffffffffffffffffffffffffffffffffffffff166108fc829081150290604051600060405180830381858888f19350505050158015610636573d6000803e3d6000fd5b5050565b60606004805480602002602001604051908101604052809291908181526020016000905b828210156107d857838290600052602060002090600402016040518060800160405290816000820180546106919061176d565b80601f01602080910402602001604051908101604052809291908181526020018280546106bd9061176d565b801561070a5780601f106106df5761010080835404028352916020019161070a565b820191906000526020600020905b8154815290600101906020018083116106ed57829003601f168201915b505050505081526020016001820160009054906101000a900473ffffffffffffffffffffffffffffffffffffffff1673ffffffffffffffffffffffffffffffffffffffff1673ffffffffffffffffffffffffffffffffffffffff168152602001600282015481526020016003820160009054906101000a900473ffffffffffffffffffffffffffffffffffffffff1673ffffffffffffffffffffffffffffffffffffffff1673ffffffffffffffffffffffffffffffffffffffff16815250508152602001906001019061065e565b50505050905090565b6000600554905090565b60006020528060005260406000206000915090505481565b6000806040518060c0016040528087815260200186815260200160008152602001858152602001600067ffffffffffffffff81111561084557610844610ecc565b5b6040519080825280602002602001820160405280156108735781602001602082028036833780820191505090505b5081526020018473ffffffffffffffffffffffffffffffffffffffff168152509050600181908060018154018082558091505060019003906000526020600020906006020160009091909190915060008201518160000190805190602001906108dd929190610d70565b506020820151816001015560408201518160020155606082015181600301908051906020019061090e929190610d70565b50608082015181600401908051906020019061092b929190610df6565b5060a08201518160050160006101000a81548173ffffffffffffffffffffffffffffffffffffffff021916908373ffffffffffffffffffffffffffffffffffffffff1602179055505050846000808573ffffffffffffffffffffffffffffffffffffffff1673ffffffffffffffffffffffffffffffffffffffff16815260200190815260200160002060008282546109c391906115d1565b92505081905550600260008154809291906109dd9061179f565b919050555060016002546109f191906117e8565b915050949350505050565b60048181548110610a0c57600080fd5b9060005260206000209060040201600091509050806000018054610a2f9061176d565b80601f0160208091040260200160405190810160405280929190818152602001828054610a5b9061176d565b8015610aa85780601f10610a7d57610100808354040283529160200191610aa8565b820191906000526020600020905b815481529060010190602001808311610a8b57829003601f168201915b5050505050908060010160009054906101000a900473ffffffffffffffffffffffffffffffffffffffff16908060020154908060030160009054906101000a900473ffffffffffffffffffffffffffffffffffffffff16905084565b60018181548110610b1457600080fd5b9060005260206000209060060201600091509050806000018054610b379061176d565b80601f0160208091040260200160405190810160405280929190818152602001828054610b639061176d565b8015610bb05780601f10610b8557610100808354040283529160200191610bb0565b820191906000526020600020905b815481529060010190602001808311610b9357829003601f168201915b505050505090806001015490806002015490806003018054610bd19061176d565b80601f0160208091040260200160405190810160405280929190818152602001828054610bfd9061176d565b8015610c4a5780601f10610c1f57610100808354040283529160200191610c4a565b820191906000526020600020905b815481529060010190602001808311610c2d57829003601f168201915b5050505050908060050160009054906101000a900473ffffffffffffffffffffffffffffffffffffffff16905085565b60055481565b60025481565b60036020528060005260406000206000915090505481565b60018281548110610cb257610cb161181c565b5b9060005260206000209060060201600401819080600181540180825580915050600190039060005260206000200160009091909190916101000a81548173ffffffffffffffffffffffffffffffffffffffff021916908373ffffffffffffffffffffffffffffffffffffffff1602179055505050565b60008060008373ffffffffffffffffffffffffffffffffffffffff1673ffffffffffffffffffffffffffffffffffffffff168152602001908152602001600020549050919050565b828054610d7c9061176d565b90600052602060002090601f016020900481019282610d9e5760008555610de5565b82601f10610db757805160ff1916838001178555610de5565b82800160010185558215610de5579182015b82811115610de4578251825591602001919060010190610dc9565b5b509050610df29190610e80565b5090565b828054828255906000526020600020908101928215610e6f579160200282015b82811115610e6e5782518260006101000a81548173ffffffffffffffffffffffffffffffffffffffff021916908373ffffffffffffffffffffffffffffffffffffffff16021790555091602001919060010190610e16565b5b509050610e7c9190610e80565b5090565b5b80821115610e99576000816000905550600101610e81565b5090565b6000604051905090565b600080fd5b600080fd5b600080fd5b600080fd5b6000601f19601f8301169050919050565b7f4e487b7100000000000000000000000000000000000000000000000000000000600052604160045260246000fd5b610f0482610ebb565b810181811067ffffffffffffffff82111715610f2357610f22610ecc565b5b80604052505050565b6000610f36610e9d565b9050610f428282610efb565b919050565b600067ffffffffffffffff821115610f6257610f61610ecc565b5b610f6b82610ebb565b9050602081019050919050565b82818337600083830152505050565b6000610f9a610f9584610f47565b610f2c565b905082815260208101848484011115610fb657610fb5610eb6565b5b610fc1848285610f78565b509392505050565b600082601f830112610fde57610fdd610eb1565b5b8135610fee848260208601610f87565b91505092915050565b600073ffffffffffffffffffffffffffffffffffffffff82169050919050565b600061102282610ff7565b9050919050565b61103281611017565b811461103d57600080fd5b50565b60008135905061104f81611029565b92915050565b6000819050919050565b61106881611055565b811461107357600080fd5b50565b6000813590506110858161105f565b92915050565b600061109682610ff7565b9050919050565b6110a68161108b565b81146110b157600080fd5b50565b6000813590506110c38161109d565b92915050565b600080600080608085870312156110e3576110e2610ea7565b5b600085013567ffffffffffffffff81111561110157611100610eac565b5b61110d87828801610fc9565b945050602061111e87828801611040565b935050604061112f87828801611076565b9250506060611140878288016110b4565b91505092959194509250565b600081519050919050565b600082825260208201905092915050565b6000819050602082019050919050565b600081519050919050565b600082825260208201905092915050565b60005b838110156111b2578082015181840152602081019050611197565b838111156111c1576000848401525b50505050565b60006111d282611178565b6111dc8185611183565b93506111ec818560208601611194565b6111f581610ebb565b840191505092915050565b6112098161108b565b82525050565b61121881611055565b82525050565b6000608083016000830151848203600086015261123b82826111c7565b91505060208301516112506020860182611200565b506040830151611263604086018261120f565b5060608301516112766060860182611200565b508091505092915050565b600061128d838361121e565b905092915050565b6000602082019050919050565b60006112ad8261114c565b6112b78185611157565b9350836020820285016112c985611168565b8060005b8581101561130557848403895281516112e68582611281565b94506112f183611295565b925060208a019950506001810190506112cd565b50829750879550505050505092915050565b6000602082019050818103600083015261133181846112a2565b905092915050565b61134281611055565b82525050565b600060208201905061135d6000830184611339565b92915050565b60006020828403121561137957611378610ea7565b5b6000611387848285016110b4565b91505092915050565b600080600080608085870312156113aa576113a9610ea7565b5b600085013567ffffffffffffffff8111156113c8576113c7610eac565b5b6113d487828801610fc9565b94505060206113e587828801611076565b935050604085013567ffffffffffffffff81111561140657611405610eac565b5b61141287828801610fc9565b9250506060611423878288016110b4565b91505092959194509250565b60006020828403121561144557611444610ea7565b5b600061145384828501611076565b91505092915050565b600082825260208201905092915050565b600061147882611178565b611482818561145c565b9350611492818560208601611194565b61149b81610ebb565b840191505092915050565b6114af8161108b565b82525050565b600060808201905081810360008301526114cf818761146d565b90506114de60208301866114a6565b6114eb6040830185611339565b6114f860608301846114a6565b95945050505050565b600060a082019050818103600083015261151b818861146d565b905061152a6020830187611339565b6115376040830186611339565b8181036060830152611549818561146d565b905061155860808301846114a6565b9695505050505050565b6000806040838503121561157957611578610ea7565b5b600061158785828601611076565b9250506020611598858286016110b4565b9150509250929050565b7f4e487b7100000000000000000000000000000000000000000000000000000000600052601160045260246000fd5b60006115dc82611055565b91506115e783611055565b9250827fffffffffffffffffffffffffffffffffffffffffffffffffffffffffffffffff0382111561161c5761161b6115a2565b5b828201905092915050565b6000819050919050565b600061164c61164761164284610ff7565b611627565b610ff7565b9050919050565b600061165e82611631565b9050919050565b600061167082611653565b9050919050565b61168081611665565b82525050565b600060808201905061169b60008301876114a6565b6116a86020830186611677565b6116b56040830185611339565b81810360608301526116c7818461146d565b905095945050505050565b7f56656e646f7220686173206e6f2066756e647320746f20776974686472617700600082015250565b6000611708601f8361145c565b9150611713826116d2565b602082019050919050565b60006020820190508181036000830152611737816116fb565b9050919050565b7f4e487b7100000000000000000000000000000000000000000000000000000000600052602260045260246000fd5b6000600282049050600182168061178557607f821691505b602082108114156117995761179861173e565b5b50919050565b60006117aa82611055565b91507fffffffffffffffffffffffffffffffffffffffffffffffffffffffffffffffff8214156117dd576117dc6115a2565b5b600182019050919050565b60006117f382611055565b91506117fe83611055565b925082821015611811576118106115a2565b5b828203905092915050565b7f4e487b7100000000000000000000000000000000000000000000000000000000600052603260045260246000fdfea2646970667358221220b54c9b1a53eb80ecc8390264548d802bccde83fa37d2e42203f94604f763f43164736f6c63430008090033",
  "linkReferences": {},
  "deployedLinkReferences": {}
}